:040000000200433285
:01000B0032C2
:03001300020000E8
:03001B00020000E0
:0100230032AA
:01002B0032A2
:01003300329A
:03003B00020000C0
:03009C0002003E21
:05003E0012009F80FE8E
:05009F001200007A00D0
:0300A400BA32006D
:0E00A700501AC28C900017E493F58C9000184C
:0800B500E493F58AC28DD28CA0
:0600BD00308DFD0A80E118
:0300C30012000028
:0C00C60090000DE493FABAFF2F20002CEC
:0600D200300029A200200D
:0300D8000001B371
:0C00DB00400D20000A758200120000A2F7
:0300E70000920084
:0600EA00A200200001B39A
:0B00F000400A758201120000A200927D
:0100FB000004
:0200FC00C20040
:0600FE00300003120000B7
:09010400748025D15003120000A3
:07010D00D29720970A7A64E3
:02011400DAFE11
:060116003097FD6300813B
:08011C00E5005401FAB40100F2
:0401240092977A64D0
:04012800DAFE809AE1
:06007200E478FFF6D8FD62
:080050007900E94400601B7A0D
:0500580000900130786A
:03005D000075A08B
:0A00600000E493F2A308B8000205C3
:08006A00A0D9F4DAF275A0FF41
:080078007800E84400600A79F9
:030080000075A068
:0600830000E4F309D8FCC3
:080089007800E84400600C79E6
:0B00910000900000E4F0A3D8FCD9FAB6
:03004300758107BD
:0A00460012012CE582600302003E67
:04012C0075820022B6
:00000001FF
